{
  "_format": "hh3-artifact-1",
  "contractName": "BlockCert",
  "sourceName": "contracts/BlockCert.sol",
  "abi": [
    {
      "inputs": [],
      "stateMutability": "nonpayable",
      "type": "constructor"
    },
    {
      "anonymous": false,
      "inputs": [
        {
          "indexed": true,
          "internalType": "string",
          "name": "certificateId",
          "type": "string"
        },
        {
          "indexed": false,
          "internalType": "string",
          "name": "ipfsHash",
          "type": "string"
        },
        {
          "indexed": false,
          "internalType": "string",
          "name": "sha256Hash",
          "type": "string"
        },
        {
          "indexed": true,
          "internalType": "address",
          "name": "authority",
          "type": "address"
        }
      ],
      "name": "CertificateRegistered",
      "type": "event"
    },
    {
      "anonymous": false,
      "inputs": [
        {
          "indexed": true,
          "internalType": "string",
          "name": "certificateId",
          "type": "string"
        },
        {
          "indexed": true,
          "internalType": "address",
          "name": "authority",
          "type": "address"
        }
      ],
      "name": "CertificateRevoked",
      "type": "event"
    },
    {
      "inputs": [
        {
          "internalType": "string",
          "name": "certId",
          "type": "string"
        }
      ],
      "name": "getCertificateData",
      "outputs": [
        {
          "internalType": "string",
          "name": "ipfsHash",
          "type": "string"
        },
        {
          "internalType": "string",
          "name": "sha256Hash",
          "type": "string"
        },
        {
          "internalType": "uint256",
          "name": "timestamp",
          "type": "uint256"
        },
        {
          "internalType": "address",
          "name": "issuedBy",
          "type": "address"
        }
      ],
      "stateMutability": "view",
      "type": "function"
    },
    {
      "inputs": [],
      "name": "getCertificatesCount",
      "outputs": [
        {
          "internalType": "uint256",
          "name": "",
          "type": "uint256"
        }
      ],
      "stateMutability": "view",
      "type": "function"
    },
    {
      "inputs": [
        {
          "internalType": "string",
          "name": "certId",
          "type": "string"
        }
      ],
      "name": "revokeCertificate",
      "outputs": [],
      "stateMutability": "nonpayable",
      "type": "function"
    },
    {
      "inputs": [
        {
          "internalType": "string",
          "name": "",
          "type": "string"
        }
      ],
      "name": "revokedCertificates",
      "outputs": [
        {
          "internalType": "bool",
          "name": "",
          "type": "bool"
        }
      ],
      "stateMutability": "view",
      "type": "function"
    },
    {
      "inputs": [
        {
          "internalType": "string",
          "name": "certId",
          "type": "string"
        },
        {
          "internalType": "string",
          "name": "ipfsHash",
          "type": "string"
        },
        {
          "internalType": "string",
          "name": "sha256Hash",
          "type": "string"
        }
      ],
      "name": "storeCertificateHash",
      "outputs": [],
      "stateMutability": "nonpayable",
      "type": "function"
    },
    {
      "inputs": [],
      "name": "universityAuthority",
      "outputs": [
        {
          "internalType": "address",
          "name": "",
          "type": "address"
        }
      ],
      "stateMutability": "view",
      "type": "function"
    },
    {
      "inputs": [
        {
          "internalType": "string",
          "name": "certId",
          "type": "string"
        },
        {
          "internalType": "string",
          "name": "sha256Hash",
          "type": "string"
        }
      ],
      "name": "verifyCertificateHash",
      "outputs": [
        {
          "internalType": "bool",
          "name": "",
          "type": "bool"
        }
      ],
      "stateMutability": "view",
      "type": "function"
    }
  ],
  "bytecode": "0x608060405234801561001057600080fd5b50600080546001600160a01b03191633179055610f7d806100326000396000f3fe608060405234801561001057600080fd5b506004361061007d5760003560e01c80638fb03a021161005b5780638fb03a02146100ee5780639d7f9be2146100ff578063a6a7747414610112578063f138bb871461015057600080fd5b8063142e15421461008257806326103566146100975780637c0086c9146100c3575b600080fd5b610095610090366004610972565b610163565b005b6100aa6100a5366004610972565b6102e7565b6040516100ba9493929190610a04565b60405180910390f35b6000546100d6906001600160a01b031681565b6040516001600160a01b0390911681526020016100ba565b6002546040519081526020016100ba565b61009561010d366004610a4b565b6104a5565b610140610120366004610afb565b805160208183018101805160038252928201919093012091525460ff1681565b60405190151581526020016100ba565b61014061015e366004610bac565b6107d5565b6000546001600160a01b031633146101965760405162461bcd60e51b815260040161018d90610c18565b60405180910390fd5b6000600183836040516101aa929190610c6b565b908152602001604051809103902060010180546101c690610c7b565b9050116101e55760405162461bcd60e51b815260040161018d90610cb5565b600382826040516101f7929190610c6b565b9081526040519081900360200190205460ff161561026f5760405162461bcd60e51b815260206004820152602f60248201527f426c6f636b43657274204572726f723a2043657274696669636174652069732060448201526e185b1c9958591e481c995d9bdad959608a1b606482015260840161018d565b600160038383604051610283929190610c6b565b908152604051908190036020018120805492151560ff199093169290921790915533906102b39084908490610c6b565b604051908190038120907f7b87df98e4ff33f07a9fbda6f93a6b69c498e48444877da8c54a83d3a43aee5b90600090a35050565b606080600080600060018787604051610301929190610c6b565b908152602001604051809103902060405180608001604052908160008201805461032a90610c7b565b80601f016020809104026020016040519081016040528092919081815260200182805461035690610c7b565b80156103a35780601f10610378576101008083540402835291602001916103a3565b820191906000526020600020905b81548152906001019060200180831161038657829003601f168201915b505050505081526020016001820180546103bc90610c7b565b80601f01602080910402602001604051908101604052809291908181526020018280546103e890610c7b565b80156104355780601f1061040a57610100808354040283529160200191610435565b820191906000526020600020905b81548152906001019060200180831161041857829003601f168201915b505050918352505060028201546020808301919091526003909201546001600160a01b0316604090910152810151519091506104835760405162461bcd60e51b815260040161018d90610cb5565b8051602082015160408301516060909301519199909850919650945092505050565b6000546001600160a01b031633146104cf5760405162461bcd60e51b815260040161018d90610c18565b600186866040516104e1929190610c6b565b908152602001604051809103902060010180546104fd90610c7b565b1590506105725760405162461bcd60e51b815260206004820152603d60248201527f426c6f636b43657274204572726f723a2043657274696669636174652068617360448201527f6820616c72656164792072656769737465726564206f6e2d636861696e000000606482015260840161018d565b846105cf5760405162461bcd60e51b815260206004820152602760248201527f426c6f636b43657274204572726f723a20496e76616c6964204365727469666960448201526618d85d1948125160ca1b606482015260840161018d565b604081146106345760405162461bcd60e51b815260206004820152602c60248201527f426c6f636b43657274204572726f723a20496e76616c6964205348412d32353660448201526b040d0c2e6d040d8cadccee8d60a31b606482015260840161018d565b604051806080016040528085858080601f016020809104026020016040519081016040528093929190818152602001838380828437600092019190915250505090825250604080516020601f86018190048102820181019092528481529181019190859085908190840183828082843760009201919091525050509082525042602082015233604091820152516001906106d19089908990610c6b565b908152604051908190036020019020815181906106ee9082610d4f565b50602082015160018201906107039082610d4f565b506040820151600282810191909155606090920151600390910180546001600160a01b0319166001600160a01b0390921691909117905580546001810182556000919091527f405787fa12a823e0f2b7631cc41b3ba8828b3321ca811111fa75cd3aa3bb5ace01610775868883610e0f565b5060405133906107889088908890610c6b565b60405180910390207f7abad8734b27a85e3bedcdea340d3ced1a85eab442ecc0c0f726f033a5646db5868686866040516107c59493929190610ef9565b60405180910390a3505050505050565b6000600385856040516107e9929190610c6b565b9081526040519081900360200190205460ff161561080957506000610921565b60006001868660405161081d929190610c6b565b9081526020016040518091039020600101805461083990610c7b565b80601f016020809104026020016040519081016040528092919081815260200182805461086590610c7b565b80156108b25780601f10610887576101008083540402835291602001916108b2565b820191906000526020600020905b81548152906001019060200180831161089557829003601f168201915b5050505050905080516000036108cc576000915050610921565b83836040516020016108df929190610c6b565b60405160208183030381529060405280519060200120816040516020016109069190610f2b565b60405160208183030381529060405280519060200120149150505b949350505050565b60008083601f84011261093b57600080fd5b50813567ffffffffffffffff81111561095357600080fd5b60208301915083602082850101111561096b57600080fd5b9250929050565b6000806020838503121561098557600080fd5b823567ffffffffffffffff81111561099c57600080fd5b6109a885828601610929565b90969095509350505050565b60005b838110156109cf5781810151838201526020016109b7565b50506000910152565b600081518084526109f08160208601602086016109b4565b601f01601f19169290920160200192915050565b608081526000610a1760808301876109d8565b8281036020840152610a2981876109d8565b604084019590955250506001600160a01b039190911660609091015292915050565b60008060008060008060608789031215610a6457600080fd5b863567ffffffffffffffff80821115610a7c57600080fd5b610a888a838b01610929565b90985096506020890135915080821115610aa157600080fd5b610aad8a838b01610929565b90965094506040890135915080821115610ac657600080fd5b50610ad389828a01610929565b979a9699509497509295939492505050565b634e487b7160e01b600052604160045260246000fd5b600060208284031215610b0d57600080fd5b813567ffffffffffffffff80821115610b2557600080fd5b818401915084601f830112610b3957600080fd5b813581811115610b4b57610b4b610ae5565b604051601f8201601f19908116603f01168101908382118183101715610b7357610b73610ae5565b81604052828152876020848701011115610b8c57600080fd5b826020860160208301376000928101602001929092525095945050505050565b60008060008060408587031215610bc257600080fd5b843567ffffffffffffffff80821115610bda57600080fd5b610be688838901610929565b90965094506020870135915080821115610bff57600080fd5b50610c0c87828801610929565b95989497509550505050565b60208082526033908201527f426c6f636b43657274204572726f723a2043616c6c6572206973206e6f7420616040820152727574686f72697a656420617574686f7269747960681b606082015260800190565b8183823760009101908152919050565b600181811c90821680610c8f57607f821691505b602082108103610caf57634e487b7160e01b600052602260045260246000fd5b50919050565b6020808252602b908201527f426c6f636b43657274204572726f723a20436572746966696361746520646f6560408201526a1cc81b9bdd08195e1a5cdd60aa1b606082015260800190565b601f821115610d4a57600081815260208120601f850160051c81016020861015610d275750805b601f850160051c820191505b81811015610d4657828155600101610d33565b5050505b505050565b815167ffffffffffffffff811115610d6957610d69610ae5565b610d7d81610d778454610c7b565b84610d00565b602080601f831160018114610db25760008415610d9a5750858301515b600019600386901b1c1916600185901b178555610d46565b600085815260208120601f198616915b82811015610de157888601518255948401946001909101908401610dc2565b5085821015610dff5787850151600019600388901b60f8161c191681555b5050505050600190811b01905550565b67ffffffffffffffff831115610e2757610e27610ae5565b610e3b83610e358354610c7b565b83610d00565b6000601f841160018114610e6f5760008515610e575750838201355b600019600387901b1c1916600186901b178355610ec9565b600083815260209020601f19861690835b82811015610ea05786850135825560209485019460019092019101610e80565b5086821015610ebd5760001960f88860031b161c19848701351681555b505060018560011b0183555b5050505050565b81835281816020850137506000828201602090810191909152601f909101601f19169091010190565b604081526000610f0d604083018688610ed0565b8281036020840152610f20818587610ed0565b979650505050505050565b60008251610f3d8184602087016109b4565b919091019291505056fea2646970667358221220ed06034c7b2b0e7823ee34eabb87660b0bbf3fe9b0cf66f5297348e0fad1fe0464736f6c63430008130033",
  "linkReferences": {},
  "deployedLinkReferences": {},
  "immutableReferences": {},
  "inputSourceName": "project/contracts/BlockCert.sol",
  "buildInfoId": "solc-0_8_19-df6322951e3d25d6d2338f15dae43d022945436f"
}